{"abi":[{"type":"constructor","inputs":[{"name":"setup_","type":"address","internalType":"address"}],"stateMutability":"nonpayable"},{"type":"function","name":"CONVERGENCE_REQUIREMENT","inputs":[],"outputs":[{"name":"","type":"uint256","internalType":"uint256"}],"stateMutability":"view"},{"type":"function","name":"TRANSCENDENCE_ESSENCE","inputs":[],"outputs":[{"name":"","type":"uint256","internalType":"uint256"}],"stateMutability":"view"},{"type":"function","name":"achieveConvergence","inputs":[{"name":"destinyData","type":"bytes","internalType":"bytes"},{"name":"soulData","type":"bytes","internalType":"bytes"}],"outputs":[],"stateMutability":"nonpayable"},{"type":"function","name":"ascended","inputs":[],"outputs":[{"name":"","type":"address","internalType":"address"}],"stateMutability":"view"},{"type":"function","name":"consumed","inputs":[{"name":"","type":"bytes32","internalType":"bytes32"}],"outputs":[{"name":"","type":"bool","internalType":"bool"}],"stateMutability":"view"},{"type":"function","name":"convergencePoints","inputs":[{"name":"","type":"address","internalType":"address"}],"outputs":[{"name":"","type":"uint256","internalType":"uint256"}],"stateMutability":"view"},{"type":"function","name":"destinyPower","inputs":[{"name":"","type":"address","internalType":"address"}],"outputs":[{"name":"","type":"uint256","internalType":"uint256"}],"stateMutability":"view"},{"type":"function","name":"getPowerLevels","inputs":[{"name":"seeker","type":"address","internalType":"address"}],"outputs":[{"name":"destiny","type":"uint256","internalType":"uint256"},{"name":"soul","type":"uint256","internalType":"uint256"},{"name":"convergence","type":"uint256","internalType":"uint256"}],"stateMutability":"view"},{"type":"function","name":"harvestSouls","inputs":[{"name":"agreement","type":"bytes","internalType":"bytes"}],"outputs":[],"stateMutability":"nonpayable"},{"type":"function","name":"offerDestiny","inputs":[{"name":"manifestation","type":"bytes","internalType":"bytes"}],"outputs":[],"stateMutability":"nonpayable"},{"type":"function","name":"registerSeeker","inputs":[],"outputs":[],"stateMutability":"nonpayable"},{"type":"function","name":"seekerSince","inputs":[{"name":"","type":"address","internalType":"address"}],"outputs":[{"name":"","type":"uint256","internalType":"uint256"}],"stateMutability":"view"},{"type":"function","name":"seekers","inputs":[{"name":"","type":"address","internalType":"address"}],"outputs":[{"name":"","type":"bool","internalType":"bool"}],"stateMutability":"view"},{"type":"function","name":"setup","inputs":[],"outputs":[{"name":"","type":"address","internalType":"contract ISetup"}],"stateMutability":"view"},{"type":"function","name":"soulEssence","inputs":[{"name":"","type":"address","internalType":"address"}],"outputs":[{"name":"","type":"uint256","internalType":"uint256"}],"stateMutability":"view"},{"type":"function","name":"transcend","inputs":[{"name":"truth","type":"bytes","internalType":"bytes"}],"outputs":[],"stateMutability":"nonpayable"},{"type":"event","name":"ConvergenceAchieved","inputs":[{"name":"seeker","type":"address","indexed":true,"internalType":"address"},{"name":"points","type":"uint256","indexed":false,"internalType":"uint256"}],"anonymous":false},{"type":"event","name":"DestinyOffered","inputs":[{"name":"seeker","type":"address","indexed":true,"internalType":"address"},{"name":"power","type":"uint256","indexed":false,"internalType":"uint256"}],"anonymous":false},{"type":"event","name":"SeekerRegistered","inputs":[{"name":"seeker","type":"address","indexed":true,"internalType":"address"},{"name":"timestamp","type":"uint256","indexed":false,"internalType":"uint256"}],"anonymous":false},{"type":"event","name":"SoulsHarvested","inputs":[{"name":"seeker","type":"address","indexed":true,"internalType":"address"},{"name":"essence","type":"uint256","indexed":false,"internalType":"uint256"}],"anonymous":false},{"type":"event","name":"Transcended","inputs":[{"name":"ascended","type":"address","indexed":true,"internalType":"address"}],"anonymous":false}],"bytecode":{"object":"0x608060405234801561000f575f80fd5b506040516116bd3803806116bd83398101604081905261002e91610052565b5f80546001600160a01b0319166001600160a01b039290921691909117905561007f565b5f60208284031215610062575f80fd5b81516001600160a01b0381168114610078575f80fd5b9392505050565b6116318061008c5f395ff3fe608060405234801561000f575f80fd5b50600436106100fb575f3560e01c80636ee393a311610093578063ba0bba4011610063578063ba0bba401461026c578063bd703d8b14610296578063f18c3bd0146102b5578063f9d585ca146102d4575f80fd5b80636ee393a31461020857806379992440146102275780638335a211146102465780638ee426a414610259575f80fd5b8063491a5af3116100ce578063491a5af314610169578063496082f11461018b57806356635e761461019e5780635c677456146101ae575f80fd5b806311ba35d2146100ff57806312f78062146101095780634648c9431461012457806348abc42114610156575b5f80fd5b6101076102e7565b005b610111606481565b6040519081526020015b60405180910390f35b610146610132366004610fc6565b60076020525f908152604090205460ff1681565b604051901515815260200161011b565b610107610164366004611022565b610399565b6101466101773660046110a0565b60026020525f908152604090205460ff1681565b6101076101993660046110c2565b61076b565b610111683635c9adc5dea0000081565b6101ed6101bc3660046110a0565b6001600160a01b03165f90815260046020908152604080832054600583528184205460069093529220549192909190565b6040805193845260208401929092529082015260600161011b565b6101116102163660046110a0565b60066020525f908152604090205481565b6101116102353660046110a0565b60046020525f908152604090205481565b6101076102543660046110c2565b610a36565b6101076102673660046110c2565b610cb7565b5f5461027e906001600160a01b031681565b6040516001600160a01b03909116815260200161011b565b6101116102a43660046110a0565b60036020525f908152604090205481565b6101116102c33660046110a0565b60056020525f908152604090205481565b60015461027e906001600160a01b031681565b335f9081526002602052604090205460ff161561033e5760405162461bcd60e51b815260206004820152601060248201526f20b63932b0b23c90309039b2b2b5b2b960811b60448201526064015b60405180910390fd5b335f818152600260209081526040808320805460ff191660011790556003825291829020429081905591519182527f25f927fa5f789d70abf1553e50b21ca6e4611e679c84be7c778b6273346dc2c2910160405180910390a2565b335f9081526002602052604090205460ff166103c75760405162461bcd60e51b815260040161033590611101565b5f3385856040516020016103dd93929190611127565b6040516020818303038152906040528051906020012090505f33848460405160200161040b93929190611127565b60408051808303601f190181529082905280516020909101205f546277b76b60e31b8352600483018590529092506001600160a01b0316906303bdbb5890602401602060405180830381865afa158015610467573d5f803e3d5ffd5b505050506040513d601f19601f8201168201806040525081019061048b9190611152565b6104d05760405162461bcd60e51b815260206004820152601660248201527511195cdd1a5b9e481b9bdd0818da1c9bdb9a58db195960521b6044820152606401610335565b5f546040516277b76b60e31b8152600481018390526001600160a01b03909116906303bdbb5890602401602060405180830381865afa158015610515573d5f803e3d5ffd5b505050506040513d601f19601f820116820180604052508101906105399190611152565b6105855760405162461bcd60e51b815260206004820152601860248201527f536f756c2070616374206e6f74206368726f6e69636c656400000000000000006044820152606401610335565b5f8281526007602052604090205460ff16156105e35760405162461bcd60e51b815260206004820152601860248201527f44657374696e7920616c726561647920636f6e73756d656400000000000000006044820152606401610335565b5f8181526007602052604090205460ff16156106415760405162461bcd60e51b815260206004820152601a60248201527f536f756c207061637420616c726561647920636f6e73756d65640000000000006044820152606401610335565b5f828152600760205260408082208054600160ff199182168117909255848452918320805490921617905580610679888801896112f9565b5090925090505f8061068d8789018961145d565b50935050509150336001600160a01b0316816001600160a01b0316146106e65760405162461bcd60e51b815260206004820152600e60248201526d2737ba103a3432903134b73232b960911b6044820152606401610335565b5f8251845186516106f791906115b7565b61070191906115b7565b335f908152600660205260408120805492935083929091906107249084906115d4565b909155505060405181815233907f51654510e284dc80745110f97ff287f46a316e351f8a905960a6a93090dc85f59060200160405180910390a25050505050505050505050565b335f9081526002602052604090205460ff166107995760405162461bcd60e51b815260040161033590611101565b5f3383836040516020016107af93929190611127565b60408051808303601f190181529082905280516020909101205f546277b76b60e31b8352600483018290529092506001600160a01b0316906303bdbb5890602401602060405180830381865afa15801561080b573d5f803e3d5ffd5b505050506040513d601f19601f8201168201806040525081019061082f9190611152565b61087b5760405162461bcd60e51b815260206004820152601c60248201527f4d616e69666573746174696f6e206e6f74206368726f6e69636c6564000000006044820152606401610335565b5f8181526007602052604090205460ff16156108d95760405162461bcd60e51b815260206004820152601a60248201527f4368726f6e69636c6520616c726561647920636f6e73756d65640000000000006044820152606401610335565b5f818152600760205260408120805460ff19166001179055806108fe848601866112f9565b92505091505f805f90505b835181101561095357838181518110610924576109246115e7565b60200260200101515166038d7ea4c6800061093f91906115b7565b61094990836115d4565b9150600101610909565b505f5b82518110156109d4575f5b838281518110610973576109736115e7565b6020026020010151518110156109cb57838281518110610995576109956115e7565b602002602001015181815181106109ae576109ae6115e7565b6020026020010151836109c191906115d4565b9250600101610961565b50600101610956565b50335f90815260046020526040812080548392906109f39084906115d4565b909155505060405181815233907f7c07acbc198e4e58a675247e4e416a5ed02116807593cd9456eda07f060e63f9906020015b60405180910390a2505050505050565b335f9081526002602052604090205460ff16610a645760405162461bcd60e51b815260040161033590611101565b5f338383604051602001610a7a93929190611127565b60408051808303601f190181529082905280516020909101205f546277b76b60e31b8352600483018290529092506001600160a01b0316906303bdbb5890602401602060405180830381865afa158015610ad6573d5f803e3d5ffd5b505050506040513d601f19601f82011682018060405250810190610afa9190611152565b610b465760405162461bcd60e51b815260206004820152601860248201527f41677265656d656e74206e6f74206368726f6e69636c656400000000000000006044820152606401610335565b5f8181526007602052604090205460ff1615610ba45760405162461bcd60e51b815260206004820152601a60248201527f4368726f6e69636c6520616c726561647920636f6e73756d65640000000000006044820152606401610335565b5f818152600760205260408120805460ff1916600117905580610bc98486018661145d565b50935050509150336001600160a01b0316816001600160a01b031614610c225760405162461bcd60e51b815260206004820152600e60248201526d2737ba103a3432903134b73232b960911b6044820152606401610335565b5f805b8351811015610c6157838181518110610c4057610c406115e7565b60200260200101516020015182610c5791906115d4565b9150600101610c25565b50335f9081526005602052604081208054839290610c809084906115d4565b909155505060405181815233907f3797466bd79e68fd366073c655ece8a6bebe2c62b475f3bd2bc58c0f635302a690602001610a26565b335f9081526002602052604090205460ff16610ce55760405162461bcd60e51b815260040161033590611101565b6001546001600160a01b031615610d3e5760405162461bcd60e51b815260206004820152601c60248201527f416e6f746865722068617320616c726561647920617363656e646564000000006044820152606401610335565b5f338383604051602001610d5493929190611127565b60408051808303601f190181529082905280516020909101205f546277b76b60e31b8352600483018290529092506001600160a01b0316906303bdbb5890602401602060405180830381865afa158015610db0573d5f803e3d5ffd5b505050506040513d601f19601f82011682018060405250810190610dd49190611152565b610e175760405162461bcd60e51b8152602060048201526014602482015273151c9d5d1a081b9bdd0818da1c9bdb9a58db195960621b6044820152606401610335565b5f8080610e268587018761145d565b9450945050509250336001600160a01b0316826001600160a01b031614610e8f5760405162461bcd60e51b815260206004820152601760248201527f596f7520617265206e6f742074686520696e766f6b65720000000000000000006044820152606401610335565b5f805b8451811015610ece57848181518110610ead57610ead6115e7565b60200260200101516020015182610ec491906115d4565b9150600101610e92565b50683635c9adc5dea00000811015610f285760405162461bcd60e51b815260206004820152601d60248201527f496e73756666696369656e7420657373656e636520696e2074727574680000006044820152606401610335565b6001600160a01b0382163314610f805760405162461bcd60e51b815260206004820152601c60248201527f546865207769746e657373206d75737420626520796f757273656c66000000006044820152606401610335565b600180546001600160a01b031916339081179091556040517f5e0fbf1c0807880e3c2e8bf858560f8d31a136e1e0b5a3f613d3c2711f1f6e31905f90a250505050505050565b5f60208284031215610fd6575f80fd5b5035919050565b5f8083601f840112610fed575f80fd5b50813567ffffffffffffffff811115611004575f80fd5b60208301915083602082850101111561101b575f80fd5b9250929050565b5f805f8060408587031215611035575f80fd5b843567ffffffffffffffff8082111561104c575f80fd5b61105888838901610fdd565b90965094506020870135915080821115611070575f80fd5b5061107d87828801610fdd565b95989497509550505050565b6001600160a01b038116811461109d575f80fd5b50565b5f602082840312156110b0575f80fd5b81356110bb81611089565b9392505050565b5f80602083850312156110d3575f80fd5b823567ffffffffffffffff8111156110e9575f80fd5b6110f585828601610fdd565b90969095509350505050565b6020808252600c908201526b2737ba10309039b2b2b5b2b960a11b604082015260600190565b6bffffffffffffffffffffffff198460601b168152818360148301375f910160140190815292915050565b5f60208284031215611162575f80fd5b815180151581146110bb575f80fd5b634e487b7160e01b5f52604160045260245ffd5b6040516060810167ffffffffffffffff811182821017156111a8576111a8611171565b60405290565b604051601f8201601f1916810167ffffffffffffffff811182821017156111d7576111d7611171565b604052919050565b5f67ffffffffffffffff8211156111f8576111f8611171565b5060051b60200190565b5f82601f830112611211575f80fd5b813567ffffffffffffffff81111561122b5761122b611171565b61123e601f8201601f19166020016111ae565b818152846020838601011115611252575f80fd5b816020850160208301375f918101602001919091529392505050565b5f82601f83011261127d575f80fd5b8135602061129261128d836111df565b6111ae565b82815260059290921b840181019181810190868411156112b0575f80fd5b8286015b848110156112ee57803567ffffffffffffffff8111156112d2575f80fd5b6112e08986838b0101611202565b8452509183019183016112b4565b509695505050505050565b5f805f6060848603121561130b575f80fd5b833567ffffffffffffffff80821115611322575f80fd5b61132e8783880161126e565b9450602091508186013581811115611344575f80fd5b6113508882890161126e565b945050604086013581811115611364575f80fd5b8601601f81018813611374575f80fd5b803561138261128d826111df565b81815260059190911b8201840190848101908a8311156113a0575f80fd5b8584015b83811015611429578035868111156113ba575f80fd5b8501603f81018d136113ca575f80fd5b878101356113da61128d826111df565b81815260059190911b820160400190898101908f8311156113f9575f80fd5b6040840193505b828410156114195783358252928a0192908a0190611400565b86525050509186019186016113a4565b508096505050505050509250925092565b803563ffffffff8116811461144d575f80fd5b919050565b803561144d81611089565b5f805f805f60a08688031215611471575f80fd5b67ffffffffffffffff86351115611486575f80fd5b8535860187601f820112611498575f80fd5b6114a561128d82356111df565b81358082526020808301929160051b8401018a8111156114c3575f80fd5b602084015b818110156115615767ffffffffffffffff813511156114e5575f80fd5b803585016060818e03601f190112156114fc575f80fd5b611504611185565b6115116020830135611089565b602082013581526040820135602082015267ffffffffffffffff6060830135111561153a575f80fd5b61154d8e60206060850135850101611202565b6040820152855250602093840193016114c8565b509097505050506020860135935061157b6040870161143a565b925061158960608701611452565b915061159760808701611452565b90509295509295909350565b634e487b7160e01b5f52601160045260245ffd5b80820281158282048414176115ce576115ce6115a3565b92915050565b808201808211156115ce576115ce6115a3565b634e487b7160e01b5f52603260045260245ffdfea26469706673582212200ad11e5759a092eb77fcc4032c906f5de3a9b1ede9535fe9147dac5d7194db6264736f6c63430008180033","linkReferences":{}},"methodIdentifiers":{"CONVERGENCE_REQUIREMENT()":"12f78062","TRANSCENDENCE_ESSENCE()":"56635e76","achieveConvergence(bytes,bytes)":"48abc421","ascended()":"f9d585ca","consumed(bytes32)":"4648c943","convergencePoints(address)":"6ee393a3","destinyPower(address)":"79992440","getPowerLevels(address)":"5c677456","harvestSouls(bytes)":"8335a211","offerDestiny(bytes)":"496082f1","registerSeeker()":"11ba35d2","seekerSince(address)":"bd703d8b","seekers(address)":"491a5af3","setup()":"ba0bba40","soulEssence(address)":"f18c3bd0","transcend(bytes)":"8ee426a4"},"id":0}