{"abi":[{"type":"constructor","inputs":[{"name":"player_","type":"address","internalType":"address"}],"stateMutability":"nonpayable"},{"type":"function","name":"bindPact","inputs":[{"name":"agreement","type":"bytes","internalType":"bytes"}],"outputs":[],"stateMutability":"nonpayable"},{"type":"function","name":"challenge","inputs":[],"outputs":[{"name":"","type":"address","internalType":"contract Challenge"}],"stateMutability":"view"},{"type":"function","name":"chronicles","inputs":[{"name":"","type":"bytes32","internalType":"bytes32"}],"outputs":[{"name":"","type":"bool","internalType":"bool"}],"stateMutability":"view"},{"type":"function","name":"isSolved","inputs":[],"outputs":[{"name":"","type":"bool","internalType":"bool"}],"stateMutability":"view"},{"type":"function","name":"player","inputs":[],"outputs":[{"name":"","type":"address","internalType":"address"}],"stateMutability":"view"},{"type":"function","name":"sealDestiny","inputs":[{"name":"manifestation","type":"bytes","internalType":"bytes"}],"outputs":[],"stateMutability":"nonpayable"}],"bytecode":{"object":"0x60a060405234801561000f575f80fd5b5060405161272938038061272983398101604081905261002e916100f9565b6001600160a01b0381166100795760405162461bcd60e51b815260206004820152600e60248201526d34b73b30b634b210383630bcb2b960911b604482015260640160405180910390fd5b6001600160a01b03811660805260405130908290610096906100ec565b6001600160a01b03928316815291166020820152604001604051809103905ff0801580156100c6573d5f803e3d5ffd5b505f80546001600160a01b0319166001600160a01b039290921691909117905550610126565b6118d980610e5083390190565b5f60208284031215610109575f80fd5b81516001600160a01b038116811461011f575f80fd5b9392505050565b608051610cfe6101525f395f818160a001528181610139015281816101c301526104d00152610cfe5ff3fe608060405234801561000f575f80fd5b5060043610610060575f3560e01c806303bdbb581461006457806348db5f891461009b57806364d98f6e146100da5780636ce4d5a6146100e2578063994d9f8f146100f7578063d2ef73981461010a575b5f80fd5b61008661007236600461079b565b60016020525f908152604090205460ff1681565b60405190151581526020015b60405180910390f35b6100c27f000000000000000000000000000000000000000000000000000000000000000081565b6040516001600160a01b039091168152602001610092565b61008661011c565b6100f56100f03660046107b2565b6101b8565b005b6100f56101053660046107b2565b6104c5565b5f546100c2906001600160a01b031681565b5f805460408051637ceac2e560e11b815290516001600160a01b037f0000000000000000000000000000000000000000000000000000000000000000811693169163f9d585ca9160048083019260209291908290030181865afa158015610185573d5f803e3d5ffd5b505050506040513d601f19601f820116820180604052508101906101a99190610835565b6001600160a01b031614905090565b336001600160a01b037f000000000000000000000000000000000000000000000000000000000000000016146102225760405162461bcd60e51b815260206004820152600a6024820152693737ba10383630bcb2b960b11b60448201526064015b60405180910390fd5b5f808061023184860186610977565b945094505050925060018351101561028b5760405162461bcd60e51b815260206004820152601c60248201527f5061637420726571756972657320736f756c20667261676d656e7473000000006044820152606401610219565b6001600160a01b0382166102d25760405162461bcd60e51b815260206004820152600e60248201526d24b73b30b634b2103134b73232b960911b6044820152606401610219565b6001600160a01b03811661031a5760405162461bcd60e51b815260206004820152600f60248201526e496e76616c6964207769746e65737360881b6044820152606401610219565b5f5b8351811015610420575f6001600160a01b031684828151811061034157610341610ac2565b60200260200101515f01516001600160a01b0316036103a25760405162461bcd60e51b815260206004820152601a60248201527f496e76616c69642076657373656c20696e20667261676d656e740000000000006044820152606401610219565b68056bc75e2d631000008482815181106103be576103be610ac2565b60200260200101516020015111156104185760405162461bcd60e51b815260206004820152601d60248201527f457373656e636520746f6f20706f77657266756c20666f7220706163740000006044820152606401610219565b60010161031c565b505f33868660405160200161043793929190610ad6565b60408051601f1981840301815291815281516020928301205f818152600190935291205490915060ff16156104a35760405162461bcd60e51b8152602060048201526012602482015271105b1c9958591e4818da1c9bdb9a58db195960721b6044820152606401610219565b5f908152600160208190526040909120805460ff191690911790555050505050565b336001600160a01b037f0000000000000000000000000000000000000000000000000000000000000000161461052a5760405162461bcd60e51b815260206004820152600a6024820152693737ba10383630bcb2b960b11b6044820152606401610219565b5f808061053984860186610b87565b9250925092506001835110156105915760405162461bcd60e51b815260206004820152601860248201527f44657374696e79207265717569726573207468726561647300000000000000006044820152606401610219565b6001825110156105e35760405162461bcd60e51b815260206004820152601860248201527f44657374696e7920726571756972657320616e63686f727300000000000000006044820152606401610219565b6001815110156106355760405162461bcd60e51b815260206004820152601860248201527f44657374696e79207265717569726573207765696768747300000000000000006044820152606401610219565b5f5b83518110156106a9575f84828151811061065357610653610ac2565b602002602001015151116106a15760405162461bcd60e51b8152602060048201526015602482015274115b5c1d1e481d1a1c9958590819195d1958dd1959605a1b6044820152606401610219565b600101610637565b505f5b825181101561071e575f8382815181106106c8576106c8610ac2565b602002602001015151116107165760405162461bcd60e51b8152602060048201526015602482015274115b5c1d1e48185b98da1bdc8819195d1958dd1959605a1b6044820152606401610219565b6001016106ac565b505f5b8151811015610420575f82828151811061073d5761073d610ac2565b602002602001015151116107935760405162461bcd60e51b815260206004820152601b60248201527f456d7074792077656967687420617272617920646574656374656400000000006044820152606401610219565b600101610721565b5f602082840312156107ab575f80fd5b5035919050565b5f80602083850312156107c3575f80fd5b823567ffffffffffffffff808211156107da575f80fd5b818501915085601f8301126107ed575f80fd5b8135818111156107fb575f80fd5b86602082850101111561080c575f80fd5b60209290920196919550909350505050565b6001600160a01b0381168114610832575f80fd5b50565b5f60208284031215610845575f80fd5b81516108508161081e565b9392505050565b634e487b7160e01b5f52604160045260245ffd5b6040516060810167ffffffffffffffff8111828210171561088e5761088e610857565b60405290565b604051601f8201601f1916810167ffffffffffffffff811182821017156108bd576108bd610857565b604052919050565b5f67ffffffffffffffff8211156108de576108de610857565b5060051b60200190565b5f82601f8301126108f7575f80fd5b813567ffffffffffffffff81111561091157610911610857565b610924601f8201601f1916602001610894565b818152846020838601011115610938575f80fd5b816020850160208301375f918101602001919091529392505050565b803563ffffffff81168114610967575f80fd5b919050565b80356109678161081e565b5f805f805f60a0868803121561098b575f80fd5b67ffffffffffffffff863511156109a0575f80fd5b8535860187601f8201126109b2575f80fd5b6109c46109bf82356108c5565b610894565b81358082526020808301929160051b8401018a8111156109e2575f80fd5b602084015b81811015610a805767ffffffffffffffff81351115610a04575f80fd5b803585016060818e03601f19011215610a1b575f80fd5b610a2361086b565b610a30602083013561081e565b602082013581526040820135602082015267ffffffffffffffff60608301351115610a59575f80fd5b610a6c8e602060608501358501016108e8565b6040820152855250602093840193016109e7565b5090975050505060208601359350610a9a60408701610954565b9250610aa86060870161096c565b9150610ab66080870161096c565b90509295509295909350565b634e487b7160e01b5f52603260045260245ffd5b6bffffffffffffffffffffffff198460601b168152818360148301375f910160140190815292915050565b5f82601f830112610b10575f80fd5b81356020610b206109bf836108c5565b82815260059290921b84018101918181019086841115610b3e575f80fd5b8286015b84811015610b7c57803567ffffffffffffffff811115610b60575f80fd5b610b6e8986838b01016108e8565b845250918301918301610b42565b509695505050505050565b5f805f60608486031215610b99575f80fd5b833567ffffffffffffffff80821115610bb0575f80fd5b610bbc87838801610b01565b9450602091508186013581811115610bd2575f80fd5b610bde88828901610b01565b945050604086013581811115610bf2575f80fd5b8601601f81018813610c02575f80fd5b8035610c106109bf826108c5565b81815260059190911b8201840190848101908a831115610c2e575f80fd5b8584015b83811015610cb757803586811115610c48575f80fd5b8501603f81018d13610c58575f80fd5b87810135610c686109bf826108c5565b81815260059190911b820160400190898101908f831115610c87575f80fd5b6040840193505b82841015610ca75783358252928a0192908a0190610c8e565b8652505050918601918601610c32565b50809650505050505050925092509256fea2646970667358221220429e4d0c73cd92abf0073e433ebc6f3bb9ecb2ac063620810fb4be8a968f75fe64736f6c6343000818003360a060405234801562000010575f80fd5b50604051620018d9380380620018d9833981016040819052620000339162000074565b5f80546001600160a01b0319166001600160a01b0393841617905516608052620000aa565b80516001600160a01b03811681146200006f575f80fd5b919050565b5f806040838503121562000086575f80fd5b620000918362000058565b9150620000a16020840162000058565b90509250929050565b6080516117f3620000e65f395f818161017901528181610324015281816104220152818161083c01528181610b4f0152610e1801526117f35ff3fe608060405234801561000f575f80fd5b5060043610610106575f3560e01c80635c6774561161009e5780638ee426a41161006e5780638ee426a4146102a3578063ba0bba40146102b6578063bd703d8b146102c8578063f18c3bd0146102e7578063f9d585ca14610306575f80fd5b80635c677456146101f85780636ee393a31461025257806379992440146102715780638335a21114610290575f80fd5b806348db5f89116100d957806348db5f8914610174578063491a5af3146101b3578063496082f1146101d557806356635e76146101e8575f80fd5b806311ba35d21461010a57806312f78062146101145780634648c9431461012f57806348abc42114610161575b5f80fd5b610112610319565b005b61011c606481565b6040519081526020015b60405180910390f35b61015161013d366004611164565b60076020525f908152604090205460ff1681565b6040519015158152602001610126565b61011261016f3660046111c0565b610417565b61019b7f000000000000000000000000000000000000000000000000000000000000000081565b6040516001600160a01b039091168152602001610126565b6101516101c136600461123e565b60026020525f908152604090205460ff1681565b6101126101e3366004611260565b610831565b61011c683635c9adc5dea0000081565b61023761020636600461123e565b6001600160a01b03165f90815260046020908152604080832054600583528184205460069093529220549192909190565b60408051938452602084019290925290820152606001610126565b61011c61026036600461123e565b60066020525f908152604090205481565b61011c61027f36600461123e565b60046020525f908152604090205481565b61011261029e366004611260565b610b44565b6101126102b1366004611260565b610e0d565b5f5461019b906001600160a01b031681565b61011c6102d636600461123e565b60036020525f908152604090205481565b61011c6102f536600461123e565b60056020525f908152604090205481565b60015461019b906001600160a01b031681565b336001600160a01b037f0000000000000000000000000000000000000000000000000000000000000000161461036a5760405162461bcd60e51b81526004016103619061129f565b60405180910390fd5b335f9081526002602052604090205460ff16156103bc5760405162461bcd60e51b815260206004820152601060248201526f20b63932b0b23c90309039b2b2b5b2b960811b6044820152606401610361565b335f818152600260209081526040808320805460ff191660011790556003825291829020429081905591519182527f25f927fa5f789d70abf1553e50b21ca6e4611e679c84be7c778b6273346dc2c2910160405180910390a2565b336001600160a01b037f0000000000000000000000000000000000000000000000000000000000000000161461045f5760405162461bcd60e51b81526004016103619061129f565b335f9081526002602052604090205460ff1661048d5760405162461bcd60e51b8152600401610361906112c3565b5f3385856040516020016104a3939291906112e9565b6040516020818303038152906040528051906020012090505f3384846040516020016104d1939291906112e9565b60408051808303601f190181529082905280516020909101205f546277b76b60e31b8352600483018590529092506001600160a01b0316906303bdbb5890602401602060405180830381865afa15801561052d573d5f803e3d5ffd5b505050506040513d601f19601f820116820180604052508101906105519190611314565b6105965760405162461bcd60e51b815260206004820152601660248201527511195cdd1a5b9e481b9bdd0818da1c9bdb9a58db195960521b6044820152606401610361565b5f546040516277b76b60e31b8152600481018390526001600160a01b03909116906303bdbb5890602401602060405180830381865afa1580156105db573d5f803e3d5ffd5b505050506040513d601f19601f820116820180604052508101906105ff9190611314565b61064b5760405162461bcd60e51b815260206004820152601860248201527f536f756c2070616374206e6f74206368726f6e69636c656400000000000000006044820152606401610361565b5f8281526007602052604090205460ff16156106a95760405162461bcd60e51b815260206004820152601860248201527f44657374696e7920616c726561647920636f6e73756d656400000000000000006044820152606401610361565b5f8181526007602052604090205460ff16156107075760405162461bcd60e51b815260206004820152601a60248201527f536f756c207061637420616c726561647920636f6e73756d65640000000000006044820152606401610361565b5f828152600760205260408082208054600160ff19918216811790925584845291832080549092161790558061073f888801896114bb565b5090925090505f806107538789018961161f565b50935050509150336001600160a01b0316816001600160a01b0316146107ac5760405162461bcd60e51b815260206004820152600e60248201526d2737ba103a3432903134b73232b960911b6044820152606401610361565b5f8251845186516107bd9190611779565b6107c79190611779565b335f908152600660205260408120805492935083929091906107ea908490611796565b909155505060405181815233907f51654510e284dc80745110f97ff287f46a316e351f8a905960a6a93090dc85f59060200160405180910390a25050505050505050505050565b336001600160a01b037f000000000000000000000000000000000000000000000000000000000000000016146108795760405162461bcd60e51b81526004016103619061129f565b335f9081526002602052604090205460ff166108a75760405162461bcd60e51b8152600401610361906112c3565b5f3383836040516020016108bd939291906112e9565b60408051808303601f190181529082905280516020909101205f546277b76b60e31b8352600483018290529092506001600160a01b0316906303bdbb5890602401602060405180830381865afa158015610919573d5f803e3d5ffd5b505050506040513d601f19601f8201168201806040525081019061093d9190611314565b6109895760405162461bcd60e51b815260206004820152601c60248201527f4d616e69666573746174696f6e206e6f74206368726f6e69636c6564000000006044820152606401610361565b5f8181526007602052604090205460ff16156109e75760405162461bcd60e51b815260206004820152601a60248201527f4368726f6e69636c6520616c726561647920636f6e73756d65640000000000006044820152606401610361565b5f818152600760205260408120805460ff1916600117905580610a0c848601866114bb565b92505091505f805f90505b8351811015610a6157838181518110610a3257610a326117a9565b60200260200101515166038d7ea4c68000610a4d9190611779565b610a579083611796565b9150600101610a17565b505f5b8251811015610ae2575f5b838281518110610a8157610a816117a9565b602002602001015151811015610ad957838281518110610aa357610aa36117a9565b60200260200101518181518110610abc57610abc6117a9565b602002602001015183610acf9190611796565b9250600101610a6f565b50600101610a64565b50335f9081526004602052604081208054839290610b01908490611796565b909155505060405181815233907f7c07acbc198e4e58a675247e4e416a5ed02116807593cd9456eda07f060e63f9906020015b60405180910390a2505050505050565b336001600160a01b037f00000000000000000000000000000000000000000000000000000000000000001614610b8c5760405162461bcd60e51b81526004016103619061129f565b335f9081526002602052604090205460ff16610bba5760405162461bcd60e51b8152600401610361906112c3565b5f338383604051602001610bd0939291906112e9565b60408051808303601f190181529082905280516020909101205f546277b76b60e31b8352600483018290529092506001600160a01b0316906303bdbb5890602401602060405180830381865afa158015610c2c573d5f803e3d5ffd5b505050506040513d601f19601f82011682018060405250810190610c509190611314565b610c9c5760405162461bcd60e51b815260206004820152601860248201527f41677265656d656e74206e6f74206368726f6e69636c656400000000000000006044820152606401610361565b5f8181526007602052604090205460ff1615610cfa5760405162461bcd60e51b815260206004820152601a60248201527f4368726f6e69636c6520616c726561647920636f6e73756d65640000000000006044820152606401610361565b5f818152600760205260408120805460ff1916600117905580610d1f8486018661161f565b50935050509150336001600160a01b0316816001600160a01b031614610d785760405162461bcd60e51b815260206004820152600e60248201526d2737ba103a3432903134b73232b960911b6044820152606401610361565b5f805b8351811015610db757838181518110610d9657610d966117a9565b60200260200101516020015182610dad9190611796565b9150600101610d7b565b50335f9081526005602052604081208054839290610dd6908490611796565b909155505060405181815233907f3797466bd79e68fd366073c655ece8a6bebe2c62b475f3bd2bc58c0f635302a690602001610b34565b336001600160a01b037f00000000000000000000000000000000000000000000000000000000000000001614610e555760405162461bcd60e51b81526004016103619061129f565b335f9081526002602052604090205460ff16610e835760405162461bcd60e51b8152600401610361906112c3565b6001546001600160a01b031615610edc5760405162461bcd60e51b815260206004820152601c60248201527f416e6f746865722068617320616c726561647920617363656e646564000000006044820152606401610361565b5f338383604051602001610ef2939291906112e9565b60408051808303601f190181529082905280516020909101205f546277b76b60e31b8352600483018290529092506001600160a01b0316906303bdbb5890602401602060405180830381865afa158015610f4e573d5f803e3d5ffd5b505050506040513d601f19601f82011682018060405250810190610f729190611314565b610fb55760405162461bcd60e51b8152602060048201526014602482015273151c9d5d1a081b9bdd0818da1c9bdb9a58db195960621b6044820152606401610361565b5f8080610fc48587018761161f565b9450945050509250336001600160a01b0316826001600160a01b03161461102d5760405162461bcd60e51b815260206004820152601760248201527f596f7520617265206e6f742074686520696e766f6b65720000000000000000006044820152606401610361565b5f805b845181101561106c5784818151811061104b5761104b6117a9565b602002602001015160200151826110629190611796565b9150600101611030565b50683635c9adc5dea000008110156110c65760405162461bcd60e51b815260206004820152601d60248201527f496e73756666696369656e7420657373656e636520696e2074727574680000006044820152606401610361565b6001600160a01b038216331461111e5760405162461bcd60e51b815260206004820152601c60248201527f546865207769746e657373206d75737420626520796f757273656c66000000006044820152606401610361565b600180546001600160a01b031916339081179091556040517f5e0fbf1c0807880e3c2e8bf858560f8d31a136e1e0b5a3f613d3c2711f1f6e31905f90a250505050505050565b5f60208284031215611174575f80fd5b5035919050565b5f8083601f84011261118b575f80fd5b50813567ffffffffffffffff8111156111a2575f80fd5b6020830191508360208285010111156111b9575f80fd5b9250929050565b5f805f80604085870312156111d3575f80fd5b843567ffffffffffffffff808211156111ea575f80fd5b6111f68883890161117b565b9096509450602087013591508082111561120e575f80fd5b5061121b8782880161117b565b95989497509550505050565b6001600160a01b038116811461123b575f80fd5b50565b5f6020828403121561124e575f80fd5b813561125981611227565b9392505050565b5f8060208385031215611271575f80fd5b823567ffffffffffffffff811115611287575f80fd5b6112938582860161117b565b90969095509350505050565b6020808252600a90820152693737ba10383630bcb2b960b11b604082015260600190565b6020808252600c908201526b2737ba10309039b2b2b5b2b960a11b604082015260600190565b6bffffffffffffffffffffffff198460601b168152818360148301375f910160140190815292915050565b5f60208284031215611324575f80fd5b81518015158114611259575f80fd5b634e487b7160e01b5f52604160045260245ffd5b6040516060810167ffffffffffffffff8111828210171561136a5761136a611333565b60405290565b604051601f8201601f1916810167ffffffffffffffff8111828210171561139957611399611333565b604052919050565b5f67ffffffffffffffff8211156113ba576113ba611333565b5060051b60200190565b5f82601f8301126113d3575f80fd5b813567ffffffffffffffff8111156113ed576113ed611333565b611400601f8201601f1916602001611370565b818152846020838601011115611414575f80fd5b816020850160208301375f918101602001919091529392505050565b5f82601f83011261143f575f80fd5b8135602061145461144f836113a1565b611370565b82815260059290921b84018101918181019086841115611472575f80fd5b8286015b848110156114b057803567ffffffffffffffff811115611494575f80fd5b6114a28986838b01016113c4565b845250918301918301611476565b509695505050505050565b5f805f606084860312156114cd575f80fd5b833567ffffffffffffffff808211156114e4575f80fd5b6114f087838801611430565b9450602091508186013581811115611506575f80fd5b61151288828901611430565b945050604086013581811115611526575f80fd5b8601601f81018813611536575f80fd5b803561154461144f826113a1565b81815260059190911b8201840190848101908a831115611562575f80fd5b8584015b838110156115eb5780358681111561157c575f80fd5b8501603f81018d1361158c575f80fd5b8781013561159c61144f826113a1565b81815260059190911b820160400190898101908f8311156115bb575f80fd5b6040840193505b828410156115db5783358252928a0192908a01906115c2565b8652505050918601918601611566565b508096505050505050509250925092565b803563ffffffff8116811461160f575f80fd5b919050565b803561160f81611227565b5f805f805f60a08688031215611633575f80fd5b67ffffffffffffffff86351115611648575f80fd5b8535860187601f82011261165a575f80fd5b61166761144f82356113a1565b81358082526020808301929160051b8401018a811115611685575f80fd5b602084015b818110156117235767ffffffffffffffff813511156116a7575f80fd5b803585016060818e03601f190112156116be575f80fd5b6116c6611347565b6116d36020830135611227565b602082013581526040820135602082015267ffffffffffffffff606083013511156116fc575f80fd5b61170f8e602060608501358501016113c4565b60408201528552506020938401930161168a565b509097505050506020860135935061173d604087016115fc565b925061174b60608701611614565b915061175960808701611614565b90509295509295909350565b634e487b7160e01b5f52601160045260245ffd5b808202811582820484141761179057611790611765565b92915050565b8082018082111561179057611790611765565b634e487b7160e01b5f52603260045260245ffdfea2646970667358221220d9ca7a3bc2c2e21f5e377945de6b76112e6f8bc8fa922883106ab89a751ef1c064736f6c63430008180033","linkReferences":{}},"methodIdentifiers":{"bindPact(bytes)":"6ce4d5a6","challenge()":"d2ef7398","chronicles(bytes32)":"03bdbb58","isSolved()":"64d98f6e","player()":"48db5f89","sealDestiny(bytes)":"994d9f8f"},"id":2}